{
  "transactions": [
    {
      "hash": "0x8ee475723b6de7e03b51895de95f79fc9359affd74bbf2b074ef3f571ff155d5",
      "transactionType": "CALL",
      "contractName": null,
      "contractAddress": "0xb248eee0f286f15d5dc491f535b7f0fc561d8afa",
      "function": "sell(uint256)",
      "arguments": [
        "140000000"
      ],
      "transaction": {
        "from": "0xcd86599dedd1a8e9d87dcec37dc8be479e78cc30",
        "to": "0xb248eee0f286f15d5dc491f535b7f0fc561d8afa",
        "gas": "0x116e9",
        "value": "0x0",
        "input": "0xe4849b320000000000000000000000000000000000000000000000000000000008583b00",
        "nonce": "0x23",
        "chainId": "0x14a34"
      },
      "additionalContracts": [],
      "isFixedGasLimit": false
    }
  ],
  "receipts": [
    {
      "status": "0x1",
      "cumulativeGasUsed": "0x43512b",
      "logs": [
        {
          "address": "0xb248eee0f286f15d5dc491f535b7f0fc561d8afa",
          "topics": [
            "0xddf252ad1be2c89b69c2b068fc378daa952ba7f163c4a11628f55a4df523b3ef",
            "0x000000000000000000000000cd86599dedd1a8e9d87dcec37dc8be479e78cc30",
            "0x0000000000000000000000000000000000000000000000000000000000000000"
          ],
          "data": "0x0000000000000000000000000000000000000000000000000000000008583b00",
          "blockHash": "0xdbd88e9698f63a91432bf055c93df3a29074bfcfd1a2d716e69db7c2b1c9c0bc",
          "blockNumber": "0x14d4cfd",
          "transactionHash": "0x8ee475723b6de7e03b51895de95f79fc9359affd74bbf2b074ef3f571ff155d5",
          "transactionIndex": "0x24",
          "logIndex": "0x5e",
          "removed": false
        },
        {
          "address": "0xb248eee0f286f15d5dc491f535b7f0fc561d8afa",
          "topics": [
            "0xed7a144fad14804d5c249145e3e0e2b63a9eb455b76aee5bc92d711e9bba3e4a",
            "0x000000000000000000000000cd86599dedd1a8e9d87dcec37dc8be479e78cc30"
          ],
          "data": "0x0000000000000000000000000000000000000000000000000000000008583b000000000000000000000000000000000000000000000000000022d025d4dd42c0",
          "blockHash": "0xdbd88e9698f63a91432bf055c93df3a29074bfcfd1a2d716e69db7c2b1c9c0bc",
          "blockNumber": "0x14d4cfd",
          "transactionHash": "0x8ee475723b6de7e03b51895de95f79fc9359affd74bbf2b074ef3f571ff155d5",
          "transactionIndex": "0x24",
          "logIndex": "0x5f",
          "removed": false
        }
      ],
      "logsBloom": "0x00000000000000000000000000000000000000000000000008000000000000000004000000002000000000000000000000000000000020000400000000000000000000000000000000000108000000000000000000000000000000000000000000000000020000000000000000000800000800000000000000000010000000000000000000000000000000000000000000000000000000000000000000000000000000000000000000000000000000000000000000000000000000000000000000000002000000000000000000000000000008000000000000000000000020000000000000000000000000000000000000000000000000000000000000800000",
      "type": "0x2",
      "transactionHash": "0x8ee475723b6de7e03b51895de95f79fc9359affd74bbf2b074ef3f571ff155d5",
      "transactionIndex": "0x24",
      "blockHash": "0xdbd88e9698f63a91432bf055c93df3a29074bfcfd1a2d716e69db7c2b1c9c0bc",
      "blockNumber": "0x14d4cfd",
      "gasUsed": "0xc9ee",
      "effectiveGasPrice": "0x187af",
      "from": "0xcd86599dedd1a8e9d87dcec37dc8be479e78cc30",
      "to": "0xb248eee0f286f15d5dc491f535b7f0fc561d8afa",
      "contractAddress": null,
      "l1BaseFeeScalar": "0x44d",
      "l1BlobBaseFee": "0x1",
      "l1BlobBaseFeeScalar": "0xa118b",
      "l1Fee": "0xb2b1d593",
      "l1GasPrice": "0x657057d8",
      "l1GasUsed": "0x640"
    }
  ],
  "libraries": [],
  "pending": [],
  "returns": {},
  "timestamp": 1739454682,
  "chain": 84532,
  "commit": "7afb97b"
}