{
  "transactions": [
    {
      "hash": "0xbeff5339c061e4620b7bb03eda19a83c20e507cf36f8400c57ac25491ab65fa2",
      "transactionType": "CALL",
      "contractName": null,
      "contractAddress": "0xef7655770f76676b4323ddeb84ac5e1ffb7f6f7a",
      "function": "sell(uint256)",
      "arguments": [
        "40000000"
      ],
      "transaction": {
        "from": "0xcd86599dedd1a8e9d87dcec37dc8be479e78cc30",
        "to": "0xef7655770f76676b4323ddeb84ac5e1ffb7f6f7a",
        "gas": "0x103e2",
        "value": "0x0",
        "input": "0xe4849b320000000000000000000000000000000000000000000000000000000002625a00",
        "nonce": "0x12",
        "chainId": "0x14a34"
      },
      "additionalContracts": [],
      "isFixedGasLimit": false
    }
  ],
  "receipts": [
    {
      "status": "0x1",
      "cumulativeGasUsed": "0x432835",
      "logs": [
        {
          "address": "0xef7655770f76676b4323ddeb84ac5e1ffb7f6f7a",
          "topics": [
            "0xddf252ad1be2c89b69c2b068fc378daa952ba7f163c4a11628f55a4df523b3ef",
            "0x000000000000000000000000cd86599dedd1a8e9d87dcec37dc8be479e78cc30",
            "0x0000000000000000000000000000000000000000000000000000000000000000"
          ],
          "data": "0x0000000000000000000000000000000000000000000000000000000002625a00",
          "blockHash": "0x8310702b64fdb486b26a5df9eda7b6ff3f79fdb1fcc24f48f0c9e0f9c09c8692",
          "blockNumber": "0x14b302b",
          "transactionHash": "0xbeff5339c061e4620b7bb03eda19a83c20e507cf36f8400c57ac25491ab65fa2",
          "transactionIndex": "0x24",
          "logIndex": "0x5d",
          "removed": false
        },
        {
          "address": "0xef7655770f76676b4323ddeb84ac5e1ffb7f6f7a",
          "topics": [
            "0xed7a144fad14804d5c249145e3e0e2b63a9eb455b76aee5bc92d711e9bba3e4a",
            "0x000000000000000000000000cd86599dedd1a8e9d87dcec37dc8be479e78cc30"
          ],
          "data": "0x0000000000000000000000000000000000000000000000000000000002625a0000000000000000000000000000000000000000000000000000038c663c847b00",
          "blockHash": "0x8310702b64fdb486b26a5df9eda7b6ff3f79fdb1fcc24f48f0c9e0f9c09c8692",
          "blockNumber": "0x14b302b",
          "transactionHash": "0xbeff5339c061e4620b7bb03eda19a83c20e507cf36f8400c57ac25491ab65fa2",
          "transactionIndex": "0x24",
          "logIndex": "0x5e",
          "removed": false
        }
      ],
      "logsBloom": "0x00000000000000000000000000000000000000000000000008000000000000000000000000102000000000000000000000000000000020000400000000000000000000000000000000000108000000000000000000000000000000000000000000000000020000000000000000000800020000000000000000000010000000000000000000000000000000000000000000000000000000004000000000000000000000000000000000000000000000000000000000000000000000000000000000000002000000000000000000000000000008000000000000000000000020000000000000000000000000000000000000000000000000000000000000000000",
      "type": "0x2",
      "transactionHash": "0xbeff5339c061e4620b7bb03eda19a83c20e507cf36f8400c57ac25491ab65fa2",
      "transactionIndex": "0x24",
      "blockHash": "0x8310702b64fdb486b26a5df9eda7b6ff3f79fdb1fcc24f48f0c9e0f9c09c8692",
      "blockNumber": "0x14b302b",
      "gasUsed": "0xbc27",
      "effectiveGasPrice": "0xbf732",
      "from": "0xcd86599dedd1a8e9d87dcec37dc8be479e78cc30",
      "to": "0xef7655770f76676b4323ddeb84ac5e1ffb7f6f7a",
      "contractAddress": null,
      "l1BaseFeeScalar": "0x44d",
      "l1BlobBaseFee": "0x1",
      "l1BlobBaseFeeScalar": "0xa118b",
      "l1Fee": "0x1ec30e3471",
      "l1GasPrice": "0x1176663b63",
      "l1GasUsed": "0x640"
    }
  ],
  "libraries": [],
  "pending": [],
  "returns": {},
  "timestamp": 1739177783,
  "chain": 84532,
  "commit": "88a76b3"
}