{
  "transactions": [
    {
      "hash": "0xc11f3d7e35ac94ff45d78be6f443d04c6b8511f393d83737c2fff5e33350ee8e",
      "transactionType": "CALL",
      "contractName": null,
      "contractAddress": "0xef7655770f76676b4323ddeb84ac5e1ffb7f6f7a",
      "function": "sell(uint256)",
      "arguments": [
        "40000000"
      ],
      "transaction": {
        "from": "0xcd86599dedd1a8e9d87dcec37dc8be479e78cc30",
        "to": "0xef7655770f76676b4323ddeb84ac5e1ffb7f6f7a",
        "gas": "0x103e2",
        "value": "0x0",
        "input": "0xe4849b320000000000000000000000000000000000000000000000000000000002625a00",
        "nonce": "0x10",
        "chainId": "0x14a34"
      },
      "additionalContracts": [],
      "isFixedGasLimit": false
    }
  ],
  "receipts": [
    {
      "status": "0x1",
      "cumulativeGasUsed": "0x8d3638",
      "logs": [
        {
          "address": "0xef7655770f76676b4323ddeb84ac5e1ffb7f6f7a",
          "topics": [
            "0xddf252ad1be2c89b69c2b068fc378daa952ba7f163c4a11628f55a4df523b3ef",
            "0x000000000000000000000000cd86599dedd1a8e9d87dcec37dc8be479e78cc30",
            "0x0000000000000000000000000000000000000000000000000000000000000000"
          ],
          "data": "0x0000000000000000000000000000000000000000000000000000000002625a00",
          "blockHash": "0x21349c1de075d63554d33afdb43f25041f5cc1c36ef9c286661bdd612c620d33",
          "blockNumber": "0x14b2fdd",
          "transactionHash": "0xc11f3d7e35ac94ff45d78be6f443d04c6b8511f393d83737c2fff5e33350ee8e",
          "transactionIndex": "0x35",
          "logIndex": "0xb0",
          "removed": false
        },
        {
          "address": "0xef7655770f76676b4323ddeb84ac5e1ffb7f6f7a",
          "topics": [
            "0xed7a144fad14804d5c249145e3e0e2b63a9eb455b76aee5bc92d711e9bba3e4a",
            "0x000000000000000000000000cd86599dedd1a8e9d87dcec37dc8be479e78cc30"
          ],
          "data": "0x0000000000000000000000000000000000000000000000000000000002625a000000000000000000000000000000000000000000000000000003835b97ab9900",
          "blockHash": "0x21349c1de075d63554d33afdb43f25041f5cc1c36ef9c286661bdd612c620d33",
          "blockNumber": "0x14b2fdd",
          "transactionHash": "0xc11f3d7e35ac94ff45d78be6f443d04c6b8511f393d83737c2fff5e33350ee8e",
          "transactionIndex": "0x35",
          "logIndex": "0xb1",
          "removed": false
        }
      ],
      "logsBloom": "0x00000000000000000000000000000000000000000000000008000000000000000000000000102000000000000000000000000000000020000400000000000000000000000000000000000108000000000000000000000000000000000000000000000000020000000000000000000800020000000000000000000010000000000000000000000000000000000000000000000000000000004000000000000000000000000000000000000000000000000000000000000000000000000000000000000002000000000000000000000000000008000000000000000000000020000000000000000000000000000000000000000000000000000000000000000000",
      "type": "0x2",
      "transactionHash": "0xc11f3d7e35ac94ff45d78be6f443d04c6b8511f393d83737c2fff5e33350ee8e",
      "transactionIndex": "0x35",
      "blockHash": "0x21349c1de075d63554d33afdb43f25041f5cc1c36ef9c286661bdd612c620d33",
      "blockNumber": "0x14b2fdd",
      "gasUsed": "0xbc27",
      "effectiveGasPrice": "0xe5d27",
      "from": "0xcd86599dedd1a8e9d87dcec37dc8be479e78cc30",
      "to": "0xef7655770f76676b4323ddeb84ac5e1ffb7f6f7a",
      "contractAddress": null,
      "l1BaseFeeScalar": "0x44d",
      "l1BlobBaseFee": "0x1",
      "l1BlobBaseFeeScalar": "0xa118b",
      "l1Fee": "0x1f57b9ef36",
      "l1GasPrice": "0x11cacb6fee",
      "l1GasUsed": "0x640"
    }
  ],
  "libraries": [],
  "pending": [],
  "returns": {},
  "timestamp": 1739177627,
  "chain": 84532,
  "commit": "88a76b3"
}